{
  "contractName": "LNFMatch",
  "abi": [
    {
      "inputs": [],
      "payable": false,
      "stateMutability": "nonpayable",
      "type": "constructor"
    },
    {
      "anonymous": false,
      "inputs": [
        {
          "indexed": false,
          "name": "AssetId",
          "type": "string"
        },
        {
          "indexed": false,
          "name": "Type",
          "type": "uint256"
        },
        {
          "indexed": false,
          "name": "Owner",
          "type": "address"
        },
        {
          "indexed": false,
          "name": "Status",
          "type": "uint256"
        }
      ],
      "name": "ItemCreated",
      "type": "event"
    },
    {
      "anonymous": false,
      "inputs": [
        {
          "indexed": false,
          "name": "AssetId",
          "type": "string"
        },
        {
          "indexed": false,
          "name": "Status",
          "type": "uint256"
        }
      ],
      "name": "ItemModified",
      "type": "event"
    },
    {
      "constant": false,
      "inputs": [
        {
          "name": "AssetId",
          "type": "string"
        },
        {
          "name": "QnAId",
          "type": "string"
        },
        {
          "name": "Type",
          "type": "uint256"
        }
      ],
      "name": "createItem",
      "outputs": [
        {
          "name": "success",
          "type": "bool"
        }
      ],
      "payable": false,
      "stateMutability": "nonpayable",
      "type": "function"
    },
    {
      "constant": true,
      "inputs": [
        {
          "name": "AssetId",
          "type": "string"
        }
      ],
      "name": "getItem",
      "outputs": [
        {
          "name": "QnAId",
          "type": "string"
        },
        {
          "name": "Type",
          "type": "uint256"
        },
        {
          "name": "Owner",
          "type": "address"
        },
        {
          "name": "Status",
          "type": "uint256"
        }
      ],
      "payable": false,
      "stateMutability": "view",
      "type": "function"
    },
    {
      "constant": true,
      "inputs": [
        {
          "name": "AssetId",
          "type": "string"
        }
      ],
      "name": "getItemClaimer",
      "outputs": [
        {
          "name": "Claimer",
          "type": "address"
        }
      ],
      "payable": false,
      "stateMutability": "view",
      "type": "function"
    },
    {
      "constant": true,
      "inputs": [
        {
          "name": "AssetId",
          "type": "string"
        }
      ],
      "name": "getItemClaimerAnswer",
      "outputs": [
        {
          "name": "ClaimerAnswer",
          "type": "string"
        }
      ],
      "payable": false,
      "stateMutability": "view",
      "type": "function"
    },
    {
      "constant": true,
      "inputs": [
        {
          "name": "AssetId",
          "type": "string"
        }
      ],
      "name": "getItemWitness",
      "outputs": [
        {
          "name": "Claimer",
          "type": "address"
        }
      ],
      "payable": false,
      "stateMutability": "view",
      "type": "function"
    },
    {
      "constant": true,
      "inputs": [
        {
          "name": "AssetId",
          "type": "string"
        }
      ],
      "name": "getRewardInfo",
      "outputs": [
        {
          "name": "Reward",
          "type": "uint256"
        },
        {
          "name": "Incentive",
          "type": "uint256"
        },
        {
          "name": "ERCToken20",
          "type": "address"
        }
      ],
      "payable": false,
      "stateMutability": "view",
      "type": "function"
    },
    {
      "constant": false,
      "inputs": [
        {
          "name": "token",
          "type": "address"
        },
        {
          "name": "AssetId",
          "type": "string"
        },
        {
          "name": "ClaimerAnswer",
          "type": "string"
        }
      ],
      "name": "Claim",
      "outputs": [
        {
          "name": "success",
          "type": "bool"
        }
      ],
      "payable": false,
      "stateMutability": "nonpayable",
      "type": "function"
    },
    {
      "constant": false,
      "inputs": [
        {
          "name": "AssetId",
          "type": "string"
        }
      ],
      "name": "Shipped",
      "outputs": [
        {
          "name": "success",
          "type": "bool"
        }
      ],
      "payable": false,
      "stateMutability": "nonpayable",
      "type": "function"
    },
    {
      "constant": false,
      "inputs": [
        {
          "name": "token",
          "type": "address"
        },
        {
          "name": "AssetId",
          "type": "string"
        }
      ],
      "name": "Redeem",
      "outputs": [
        {
          "name": "success",
          "type": "bool"
        }
      ],
      "payable": false,
      "stateMutability": "nonpayable",
      "type": "function"
    }
  ],
  "bytecode": "0x608060405234801561001057600080fd5b50336000806101000a81548173ffffffffffffffffffffffffffffffffffffffff021916908373ffffffffffffffffffffffffffffffffffffffff16021790555061166c806100606000396000f300608060405260043610610099576000357c0100000000000000000000000000000000000000000000000000000000900463ffffffff1680632c2b13b91461009e5780632fed65271461014757806352422beb146102295780635fb6161c146102aa57806372a9c52b1461031f578063a47ed80e14610406578063a74da377146104af578063b6010fcd14610566578063d373081314610689575b600080fd5b3480156100aa57600080fd5b50610105600480360381019080803590602001908201803590602001908080601f016020809104026020016040519081016040528093929190818152602001838380828437820191505050505050919291929050505061072a565b604051808273ffffffffffffffffffffffffffffffffffffffff1673ffffffffffffffffffffffffffffffffffffffff16815260200191505060405180910390f35b34801561015357600080fd5b506101ae600480360381019080803590602001908201803590602001908080601f01602080910402602001604051908101604052809392919081815260200183838082843782019150505050505091929192905050506107c2565b6040518080602001828103825283818151815260200191508051906020019080838360005b838110156101ee5780820151818401526020810190506101d3565b50505050905090810190601f16801561021b5780820380516001836020036101000a031916815260200191505b509250505060405180910390f35b34801561023557600080fd5b50610290600480360381019080803590602001908201803590602001908080601f01602080910402602001604051908101604052809392919081815260200183838082843782019150505050505091929192905050506108d2565b604051808215151515815260200191505060405180910390f35b3480156102b657600080fd5b5061030560048036038101908080359060200190820180359060200191909192939192939080359060200190820180359060200191909192939192939080359060200190929190505050610951565b604051808215151515815260200191505060405180910390f35b34801561032b57600080fd5b506103ec600480360381019080803573ffffffffffffffffffffffffffffffffffffffff169060200190929190803590602001908201803590602001908080601f0160208091040260200160405190810160405280939291908181526020018383808284378201915050505050509192919290803590602001908201803590602001908080601f0160208091040260200160405190810160405280939291908181526020018383808284378201915050505050509192919290505050610c4d565b604051808215151515815260200191505060405180910390f35b34801561041257600080fd5b5061046d600480360381019080803590602001908201803590602001908080601f0160208091040260200160405190810160405280939291908181526020018383808284378201915050505050509192919290505050610dfe565b604051808273ffffffffffffffffffffffffffffffffffffffff1673ffffffffffffffffffffffffffffffffffffffff16815260200191505060405180910390f35b3480156104bb57600080fd5b50610516600480360381019080803590602001908201803590602001908080601f0160208091040260200160405190810160405280939291908181526020018383808284378201915050505050509192919290505050610e96565b604051808481526020018381526020018273ffffffffffffffffffffffffffffffffffffffff1673ffffffffffffffffffffffffffffffffffffffff168152602001935050505060405180910390f35b34801561057257600080fd5b506105cd600480360381019080803590602001908201803590602001908080601f0160208091040260200160405190810160405280939291908181526020018383808284378201915050505050509192919290505050611015565b60405180806020018581526020018473ffffffffffffffffffffffffffffffffffffffff1673ffffffffffffffffffffffffffffffffffffffff168152602001838152602001828103825286818151815260200191508051906020019080838360005b8381101561064b578082015181840152602081019050610630565b50505050905090810190601f1680156106785780820380516001836020036101000a031916815260200191505b509550505050505060405180910390f35b34801561069557600080fd5b50610710600480360381019080803573ffffffffffffffffffffffffffffffffffffffff169060200190929190803590602001908201803590602001908080601f01602080910402602001604051908101604052809392919081815260200183838082843782019150505050505091929192905050506112a2565b604051808215151515815260200191505060405180910390f35b60006001826040518082805190602001908083835b602083101515610764578051825260208201915060208101905060208303925061073f565b6001836020036101000a038019825116818451168082178552505050505050905001915050908152602001604051809103902060060160009054906101000a900473ffffffffffffffffffffffffffffffffffffffff169050919050565b60606001826040518082805190602001908083835b6020831015156107fc57805182526020820191506020810190506020830392506107d7565b6001836020036101000a03801982511681845116808217855250505050505090500191505090815260200160405180910390206007018054600181600116156101000203166002900480601f0160208091040260200160405190810160405280929190818152602001828054600181600116156101000203166002900480156108c65780601f1061089b576101008083540402835291602001916108c6565b820191906000526020600020905b8154815290600101906020018083116108a957829003601f168201915b50505050509050919050565b600060026001836040518082805190602001908083835b60208310151561090e57805182526020820191506020810190506020830392506108e9565b6001836020036101000a03801982511681845116808217855250505050505090500191505090815260200160405180910390206004018190555060019050919050565b6000858560018888604051808383808284378201915050925050509081526020016040518091039020600001919061098a92919061151b565b5083836001888860405180838380828437820191505092505050908152602001604051809103902060010191906109c292919061151b565b50816001878760405180838380828437820191505092505050908152602001604051809103902060020181905550336001878760405180838380828437820191505092505050908152602001604051809103902060030160006101000a81548173ffffffffffffffffffffffffffffffffffffffff021916908373ffffffffffffffffffffffffffffffffffffffff1602179055506001808787604051808383808284378201915050925050509081526020016040518091039020600401819055507f4246cae98a0bc733c8412e1ff8389e63f5af6d1e216f8b65ccc202d46f2232746001878760405180838380828437820191505092505050908152602001604051809103902060000160018888604051808383808284378201915050925050509081526020016040518091039020600201546001898960405180838380828437820191505092505050908152602001604051809103902060030160009054906101000a900473ffffffffffffffffffffffffffffffffffffffff1660018a8a6040518083838082843782019150509250505090815260200160405180910390206004015460405180806020018581526020018473ffffffffffffffffffffffffffffffffffffffff1673ffffffffffffffffffffffffffffffffffffffff168152602001838152602001828103825286818154600181600116156101000203166002900481526020019150805460018160011615610100020316600290048015610c2f5780601f10610c0457610100808354040283529160200191610c2f565b820191906000526020600020905b815481529060010190602001808311610c1257829003601f168201915b50509550505050505060405180910390a16001905095945050505050565b6000336001846040518082805190602001908083835b602083101515610c885780518252602082019150602081019050602083039250610c63565b6001836020036101000a038019825116818451168082178552505050505050905001915050908152602001604051809103902060060160006101000a81548173ffffffffffffffffffffffffffffffffffffffff021916908373ffffffffffffffffffffffffffffffffffffffff160217905550816001846040518082805190602001908083835b602083101515610d355780518252602082019150602081019050602083039250610d10565b6001836020036101000a03801982511681845116808217855250505050505090500191505090815260200160405180910390206007019080519060200190610d7e92919061159b565b5060026001846040518082805190602001908083835b602083101515610db95780518252602082019150602081019050602083039250610d94565b6001836020036101000a038019825116818451168082178552505050505050905001915050908152602001604051809103902060040181905550600190509392505050565b60006001826040518082805190602001908083835b602083101515610e385780518252602082019150602081019050602083039250610e13565b6001836020036101000a038019825116818451168082178552505050505050905001915050908152602001604051809103902060050160009054906101000a900473ffffffffffffffffffffffffffffffffffffffff169050919050565b60008060006001846040518082805190602001908083835b602083101515610ed35780518252602082019150602081019050602083039250610eae565b6001836020036101000a0380198251168184511680821785525050505050509050019150509081526020016040518091039020600801546001856040518082805190602001908083835b602083101515610f425780518252602082019150602081019050602083039250610f1d565b6001836020036101000a0380198251168184511680821785525050505050509050019150509081526020016040518091039020600901546001866040518082805190602001908083835b602083101515610fb15780518252602082019150602081019050602083039250610f8c565b6001836020036101000a0380198251168184511680821785525050505050509050019150509081526020016040518091039020600a0160009054906101000a900473ffffffffffffffffffffffffffffffffffffffff169250925092509193909250565b606060008060006001856040518082805190602001908083835b602083101515611054578051825260208201915060208101905060208303925061102f565b6001836020036101000a03801982511681845116808217855250505050505090500191505090815260200160405180910390206001016001866040518082805190602001908083835b6020831015156110c2578051825260208201915060208101905060208303925061109d565b6001836020036101000a0380198251168184511680821785525050505050509050019150509081526020016040518091039020600201546001876040518082805190602001908083835b602083101515611131578051825260208201915060208101905060208303925061110c565b6001836020036101000a038019825116818451168082178552505050505050905001915050908152602001604051809103902060030160009054906101000a900473ffffffffffffffffffffffffffffffffffffffff166001886040518082805190602001908083835b6020831015156111c0578051825260208201915060208101905060208303925061119b565b6001836020036101000a038019825116818451168082178552505050505050905001915050908152602001604051809103902060040154838054600181600116156101000203166002900480601f01602080910402602001604051908101604052809291908181526020018280546001816001161561010002031660029004801561128c5780601f106112615761010080835404028352916020019161128c565b820191906000526020600020905b81548152906001019060200180831161126f57829003601f168201915b5050505050935093509350935093509193509193565b60006113ab836001846040518082805190602001908083835b6020831015156112e057805182526020820191506020810190506020830392506112bb565b6001836020036101000a038019825116818451168082178552505050505050905001915050908152602001604051809103902060030160009054906101000a900473ffffffffffffffffffffffffffffffffffffffff166001856040518082805190602001908083835b60208310151561136f578051825260208201915060208101905060208303925061134a565b6001836020036101000a03801982511681845116808217855250505050505090500191505090815260200160405180910390206008015461142a565b5060036001836040518082805190602001908083835b6020831015156113e657805182526020820191506020810190506020830392506113c1565b6001836020036101000a0380198251168184511680821785525050505050509050019150509081526020016040518091039020600401819055506001905092915050565b6000808490508073ffffffffffffffffffffffffffffffffffffffff1663a9059cbb85856040518363ffffffff167c0100000000000000000000000000000000000000000000000000000000028152600401808373ffffffffffffffffffffffffffffffffffffffff1673ffffffffffffffffffffffffffffffffffffffff16815260200182815260200192505050602060405180830381600087803b1580156114d357600080fd5b505af11580156114e7573d6000803e3d6000fd5b505050506040513d60208110156114fd57600080fd5b81019080805190602001909291905050505060019150509392505050565b828054600181600116156101000203166002900490600052602060002090601f016020900481019282601f1061155c57803560ff191683800117855561158a565b8280016001018555821561158a579182015b8281111561158957823582559160200191906001019061156e565b5b509050611597919061161b565b5090565b828054600181600116156101000203166002900490600052602060002090601f016020900481019282601f106115dc57805160ff191683800117855561160a565b8280016001018555821561160a579182015b828111156116095782518255916020019190600101906115ee565b5b509050611617919061161b565b5090565b61163d91905b80821115611639576000816000905550600101611621565b5090565b905600a165627a7a72305820650ed35ae9fea1f622afa276d408ff1491248c3e67bfa75b4c502e905cd9f8790029",
  "source": "pragma solidity ^0.4.18;\r\n\r\nimport \"./ERC20Token.sol\";\r\nimport \"./SafeMath.sol\";\r\n\r\ncontract LNFMatch {\r\n  \r\n   address ContractOwner;\r\n   mapping(string => Item) Items; \r\n   \r\n\r\n   constructor() public  {\r\n        ContractOwner = msg.sender;\r\n    }\r\n\r\n   struct Item {\r\n        string AssetId; //IPFS Hash\r\n        string QnAId; //IPFS Hash\r\n        uint Type; //Found Or Lost\r\n        address Owner; // Founder/Person Lost It\r\n        uint Status; // 1: Wanted 2: Lost it 3: Claiming 4: Pending Shipping 5: Pending Payment 6: Complete\r\n        address Witness;\r\n        address Claimer;\r\n        string ClaimerAnswer;\r\n        uint Reward;\r\n        uint Incentive;\r\n        address ERCToken20;\r\n    }\r\n\r\n    event ItemCreated(\r\n       string AssetId,\r\n       uint Type, \r\n       address Owner, \r\n       uint Status\r\n    );\r\n\r\n   event ItemModified(\r\n       string AssetId,\r\n       uint Status// 1: Wanted 2: Lost it 3: Claiming 4: Pending Shipping 5: Pending Payment 6: Complete\r\n    );\r\n\r\n   function createItem(\r\n        string AssetId,\r\n        string QnAId,\r\n        uint Type) external returns (bool success) \r\n        {\r\n          Items[AssetId].AssetId = AssetId;\r\n          Items[AssetId].QnAId =QnAId;\r\n          Items[AssetId].Type =Type;\r\n          Items[AssetId].Owner =msg.sender;\r\n          Items[AssetId].Status = 1;\r\n\r\n          emit ItemCreated(\r\n                Items[AssetId].AssetId,\r\n                Items[AssetId].Type, \r\n                Items[AssetId].Owner, \r\n                Items[AssetId].Status);\r\n\r\n          return true;\r\n        }\r\n\r\n  function getItem(string AssetId) public constant returns  (\r\n        string QnAId,\r\n        uint Type,\r\n        address Owner, \r\n        uint Status) \r\n     {\r\n      return \r\n      (\r\n       Items[AssetId].QnAId,\r\n       Items[AssetId].Type,\r\n       Items[AssetId].Owner, \r\n       Items[AssetId].Status\r\n      );\r\n  }\r\n\r\n  function getItemClaimer(string AssetId) public constant returns  (\r\n        address Claimer) \r\n     {\r\n      return \r\n      (\r\n      \r\n       Items[AssetId].Claimer\r\n      );\r\n  }\r\n\r\n  function getItemClaimerAnswer(string AssetId) public constant returns  (\r\n        string ClaimerAnswer) \r\n     {\r\n      return \r\n      (\r\n      \r\n       Items[AssetId].ClaimerAnswer\r\n      );\r\n  }\r\n\r\n   function getItemWitness(string AssetId) public constant returns  (\r\n        address Claimer) \r\n     {\r\n      return \r\n      (\r\n       Items[AssetId].Witness\r\n      );\r\n  }\r\n\r\n function getRewardInfo(string AssetId) public constant returns (\r\n        uint Reward,\r\n        uint Incentive,\r\n        address ERCToken20) \r\n     {\r\n      return \r\n      (\r\n         Items[AssetId].Reward,\r\n         Items[AssetId].Incentive,\r\n         Items[AssetId].ERCToken20\r\n      );\r\n  }\r\n\r\n\r\n  function Claim(address token, string AssetId, string ClaimerAnswer) public returns (bool success)\r\n  {\r\n        Items[AssetId].Claimer = msg.sender;\r\n        Items[AssetId].ClaimerAnswer= ClaimerAnswer;\r\n        Items[AssetId].Status = 2;\r\n       // transferToken(token, Items[AssetId].Witness, Items[AssetId].Incentive);\r\n       // transferToken(token, Items[AssetId].Witness, Items[AssetId].Reward);\r\n        return true;\r\n        // From Claimer To Incentived\r\n        // From Claimer To Reward Holder\r\n  }\r\n\r\n\r\n  function Shipped(string AssetId) public returns (bool success)\r\n  {\r\n        Items[AssetId].Status = 2;\r\n        return true;\r\n  }\r\n\r\n  //By Witness\r\n  function Redeem(address token, string AssetId) public returns (bool success)\r\n  {\r\n        transferToken(token, Items[AssetId].Owner, Items[AssetId].Reward);\r\n        Items[AssetId].Status = 3;\r\n        return true;\r\n  }\r\n\r\n    function transferToken(address token, address to, uint256 amount)private returns (bool success) \r\n    {\r\n         ERC20Token m = ERC20Token(token);\r\n         m.transfer(to,amount);\r\n         return true;\r\n    }\r\n\r\n     function withdrawToken(address token, address from, uint256 amount)private returns (bool success) \r\n    {\r\n         ERC20Token m = ERC20Token(token);\r\n         m.transferFrom(from,address(this),amount);\r\n         return true;\r\n    }\r\n\r\n    function refundToken(address token, address to, uint256 amount)private returns (bool success) \r\n    {\r\n         ERC20Token m = ERC20Token(token);\r\n         m.transferFrom(address(this),to,amount);\r\n         return true;\r\n    }\r\n\r\n}",
  "sourcePath": "C:\\hackathon2018\\block\\contracts\\LNFMatch.sol",
  "compiler": {
    "name": "solc",
    "version": "0.4.24+commit.e67f0147.Emscripten.clang"
  },
  "schemaVersion": "2.0.0",
  "updatedAt": "2018-08-18T09:12:59.249Z"
}