{
  "contractName": "LNFMatch",
  "abi": [
    {
      "inputs": [],
      "payable": false,
      "stateMutability": "nonpayable",
      "type": "constructor"
    },
    {
      "anonymous": false,
      "inputs": [
        {
          "indexed": false,
          "name": "AssetId",
          "type": "string"
        },
        {
          "indexed": false,
          "name": "Type",
          "type": "uint256"
        },
        {
          "indexed": false,
          "name": "Owner",
          "type": "address"
        },
        {
          "indexed": false,
          "name": "Status",
          "type": "uint256"
        }
      ],
      "name": "ItemCreated",
      "type": "event"
    },
    {
      "anonymous": false,
      "inputs": [
        {
          "indexed": false,
          "name": "AssetId",
          "type": "string"
        },
        {
          "indexed": false,
          "name": "Status",
          "type": "uint256"
        }
      ],
      "name": "ItemModified",
      "type": "event"
    },
    {
      "constant": false,
      "inputs": [
        {
          "name": "AssetId",
          "type": "string"
        },
        {
          "name": "QnAId",
          "type": "string"
        },
        {
          "name": "Type",
          "type": "uint256"
        }
      ],
      "name": "createItem",
      "outputs": [
        {
          "name": "success",
          "type": "bool"
        }
      ],
      "payable": false,
      "stateMutability": "nonpayable",
      "type": "function"
    },
    {
      "constant": false,
      "inputs": [
        {
          "name": "AssetId",
          "type": "string"
        },
        {
          "name": "Reward",
          "type": "uint256"
        },
        {
          "name": "Incentive",
          "type": "uint256"
        },
        {
          "name": "ERCToken20Contract",
          "type": "address"
        }
      ],
      "name": "createItemReward",
      "outputs": [
        {
          "name": "success",
          "type": "bool"
        }
      ],
      "payable": false,
      "stateMutability": "nonpayable",
      "type": "function"
    },
    {
      "constant": true,
      "inputs": [
        {
          "name": "AssetId",
          "type": "string"
        }
      ],
      "name": "getItem",
      "outputs": [
        {
          "name": "QnAId",
          "type": "string"
        },
        {
          "name": "Type",
          "type": "uint256"
        },
        {
          "name": "Owner",
          "type": "address"
        },
        {
          "name": "Status",
          "type": "uint256"
        }
      ],
      "payable": false,
      "stateMutability": "view",
      "type": "function"
    },
    {
      "constant": true,
      "inputs": [
        {
          "name": "AssetId",
          "type": "string"
        }
      ],
      "name": "getItemClaimer",
      "outputs": [
        {
          "name": "Claimer",
          "type": "address"
        }
      ],
      "payable": false,
      "stateMutability": "view",
      "type": "function"
    },
    {
      "constant": true,
      "inputs": [
        {
          "name": "AssetId",
          "type": "string"
        }
      ],
      "name": "getItemClaimerAnswer",
      "outputs": [
        {
          "name": "ClaimerAnswer",
          "type": "string"
        }
      ],
      "payable": false,
      "stateMutability": "view",
      "type": "function"
    },
    {
      "constant": true,
      "inputs": [
        {
          "name": "AssetId",
          "type": "string"
        }
      ],
      "name": "getItemWitness",
      "outputs": [
        {
          "name": "Claimer",
          "type": "address"
        }
      ],
      "payable": false,
      "stateMutability": "view",
      "type": "function"
    },
    {
      "constant": true,
      "inputs": [
        {
          "name": "AssetId",
          "type": "string"
        }
      ],
      "name": "getRewardInfo",
      "outputs": [
        {
          "name": "Reward",
          "type": "uint256"
        },
        {
          "name": "Incentive",
          "type": "uint256"
        },
        {
          "name": "ERCToken20Contract",
          "type": "address"
        }
      ],
      "payable": false,
      "stateMutability": "view",
      "type": "function"
    },
    {
      "constant": false,
      "inputs": [
        {
          "name": "token",
          "type": "address"
        },
        {
          "name": "AssetId",
          "type": "string"
        },
        {
          "name": "ClaimerAnswer",
          "type": "string"
        }
      ],
      "name": "Claim",
      "outputs": [
        {
          "name": "success",
          "type": "bool"
        }
      ],
      "payable": false,
      "stateMutability": "nonpayable",
      "type": "function"
    },
    {
      "constant": false,
      "inputs": [
        {
          "name": "AssetId",
          "type": "string"
        }
      ],
      "name": "Shipped",
      "outputs": [
        {
          "name": "success",
          "type": "bool"
        }
      ],
      "payable": false,
      "stateMutability": "nonpayable",
      "type": "function"
    },
    {
      "constant": false,
      "inputs": [
        {
          "name": "token",
          "type": "address"
        },
        {
          "name": "AssetId",
          "type": "string"
        }
      ],
      "name": "Redeem",
      "outputs": [
        {
          "name": "success",
          "type": "bool"
        }
      ],
      "payable": false,
      "stateMutability": "nonpayable",
      "type": "function"
    }
  ],
  "bytecode": "0x608060405234801561001057600080fd5b50336000806101000a81548173ffffffffffffffffffffffffffffffffffffffff021916908373ffffffffffffffffffffffffffffffffffffffff160217905550611ab5806100606000396000f3006080604052600436106100a4576000357c0100000000000000000000000000000000000000000000000000000000900463ffffffff1680632c2b13b9146100a95780632fed65271461015257806352422beb146102345780635fb6161c146102b557806372a9c52b1461032a57806391f5df7f14610411578063a47ed80e14610498578063a74da37714610541578063b6010fcd146105f8578063d37308131461071b575b600080fd5b3480156100b557600080fd5b50610110600480360381019080803590602001908201803590602001908080601f01602080910402602001604051908101604052809392919081815260200183838082843782019150505050505091929192905050506107bc565b604051808273ffffffffffffffffffffffffffffffffffffffff1673ffffffffffffffffffffffffffffffffffffffff16815260200191505060405180910390f35b34801561015e57600080fd5b506101b9600480360381019080803590602001908201803590602001908080601f0160208091040260200160405190810160405280939291908181526020018383808284378201915050505050509192919290505050610854565b6040518080602001828103825283818151815260200191508051906020019080838360005b838110156101f95780820151818401526020810190506101de565b50505050905090810190601f1680156102265780820380516001836020036101000a031916815260200191505b509250505060405180910390f35b34801561024057600080fd5b5061029b600480360381019080803590602001908201803590602001908080601f0160208091040260200160405190810160405280939291908181526020018383808284378201915050505050509192919290505050610964565b604051808215151515815260200191505060405180910390f35b3480156102c157600080fd5b50610310600480360381019080803590602001908201803590602001919091929391929390803590602001908201803590602001919091929391929390803590602001909291905050506109e3565b604051808215151515815260200191505060405180910390f35b34801561033657600080fd5b506103f7600480360381019080803573ffffffffffffffffffffffffffffffffffffffff169060200190929190803590602001908201803590602001908080601f0160208091040260200160405190810160405280939291908181526020018383808284378201915050505050509192919290803590602001908201803590602001908080601f0160208091040260200160405190810160405280939291908181526020018383808284378201915050505050509192919290505050610cdf565b604051808215151515815260200191505060405180910390f35b34801561041d57600080fd5b5061047e6004803603810190808035906020019082018035906020019190919293919293908035906020019092919080359060200190929190803573ffffffffffffffffffffffffffffffffffffffff169060200190929190505050610f0a565b604051808215151515815260200191505060405180910390f35b3480156104a457600080fd5b506104ff600480360381019080803590602001908201803590602001908080601f0160208091040260200160405190810160405280939291908181526020018383808284378201915050505050509192919290505050611122565b604051808273ffffffffffffffffffffffffffffffffffffffff1673ffffffffffffffffffffffffffffffffffffffff16815260200191505060405180910390f35b34801561054d57600080fd5b506105a8600480360381019080803590602001908201803590602001908080601f01602080910402602001604051908101604052809392919081815260200183838082843782019150505050505091929192905050506111ba565b604051808481526020018381526020018273ffffffffffffffffffffffffffffffffffffffff1673ffffffffffffffffffffffffffffffffffffffff168152602001935050505060405180910390f35b34801561060457600080fd5b5061065f600480360381019080803590602001908201803590602001908080601f0160208091040260200160405190810160405280939291908181526020018383808284378201915050505050509192919290505050611339565b60405180806020018581526020018473ffffffffffffffffffffffffffffffffffffffff1673ffffffffffffffffffffffffffffffffffffffff168152602001838152602001828103825286818151815260200191508051906020019080838360005b838110156106dd5780820151818401526020810190506106c2565b50505050905090810190601f16801561070a5780820380516001836020036101000a031916815260200191505b509550505050505060405180910390f35b34801561072757600080fd5b506107a2600480360381019080803573ffffffffffffffffffffffffffffffffffffffff169060200190929190803590602001908201803590602001908080601f01602080910402602001604051908101604052809392919081815260200183838082843782019150505050505091929192905050506115c6565b604051808215151515815260200191505060405180910390f35b60006001826040518082805190602001908083835b6020831015156107f657805182526020820191506020810190506020830392506107d1565b6001836020036101000a038019825116818451168082178552505050505050905001915050908152602001604051809103902060060160009054906101000a900473ffffffffffffffffffffffffffffffffffffffff169050919050565b60606001826040518082805190602001908083835b60208310151561088e5780518252602082019150602081019050602083039250610869565b6001836020036101000a03801982511681845116808217855250505050505090500191505090815260200160405180910390206007018054600181600116156101000203166002900480601f0160208091040260200160405190810160405280929190818152602001828054600181600116156101000203166002900480156109585780601f1061092d57610100808354040283529160200191610958565b820191906000526020600020905b81548152906001019060200180831161093b57829003601f168201915b50505050509050919050565b600060026001836040518082805190602001908083835b6020831015156109a0578051825260208201915060208101905060208303925061097b565b6001836020036101000a03801982511681845116808217855250505050505090500191505090815260200160405180910390206004018190555060019050919050565b60008585600188886040518083838082843782019150509250505090815260200160405180910390206000019190610a1c929190611964565b508383600188886040518083838082843782019150509250505090815260200160405180910390206001019190610a54929190611964565b50816001878760405180838380828437820191505092505050908152602001604051809103902060020181905550336001878760405180838380828437820191505092505050908152602001604051809103902060030160006101000a81548173ffffffffffffffffffffffffffffffffffffffff021916908373ffffffffffffffffffffffffffffffffffffffff1602179055506001808787604051808383808284378201915050925050509081526020016040518091039020600401819055507f4246cae98a0bc733c8412e1ff8389e63f5af6d1e216f8b65ccc202d46f2232746001878760405180838380828437820191505092505050908152602001604051809103902060000160018888604051808383808284378201915050925050509081526020016040518091039020600201546001898960405180838380828437820191505092505050908152602001604051809103902060030160009054906101000a900473ffffffffffffffffffffffffffffffffffffffff1660018a8a6040518083838082843782019150509250505090815260200160405180910390206004015460405180806020018581526020018473ffffffffffffffffffffffffffffffffffffffff1673ffffffffffffffffffffffffffffffffffffffff168152602001838152602001828103825286818154600181600116156101000203166002900481526020019150805460018160011615610100020316600290048015610cc15780601f10610c9657610100808354040283529160200191610cc1565b820191906000526020600020905b815481529060010190602001808311610ca457829003601f168201915b50509550505050505060405180910390a16001905095945050505050565b6000336001846040518082805190602001908083835b602083101515610d1a5780518252602082019150602081019050602083039250610cf5565b6001836020036101000a038019825116818451168082178552505050505050905001915050908152602001604051809103902060060160006101000a81548173ffffffffffffffffffffffffffffffffffffffff021916908373ffffffffffffffffffffffffffffffffffffffff160217905550816001846040518082805190602001908083835b602083101515610dc75780518252602082019150602081019050602083039250610da2565b6001836020036101000a03801982511681845116808217855250505050505090500191505090815260200160405180910390206007019080519060200190610e109291906119e4565b5060026001846040518082805190602001908083835b602083101515610e4b5780518252602082019150602081019050602083039250610e26565b6001836020036101000a038019825116818451168082178552505050505050905001915050908152602001604051809103902060040181905550610efe84336001866040518082805190602001908083835b602083101515610ec25780518252602082019150602081019050602083039250610e9d565b6001836020036101000a03801982511681845116808217855250505050505090500191505090815260200160405180910390206008015461174e565b50600190509392505050565b60008585600188886040518083838082843782019150509250505090815260200160405180910390206000019190610f43929190611964565b508360018787604051808383808284378201915050925050509081526020016040518091039020600801819055508260018787604051808383808284378201915050925050509081526020016040518091039020600901819055508160018787604051808383808284378201915050925050509081526020016040518091039020600a0160006101000a81548173ffffffffffffffffffffffffffffffffffffffff021916908373ffffffffffffffffffffffffffffffffffffffff1602179055507f6dca4fb49a062f5ebd29e7433439d705784fe0bdaf337261936f124885c7f7ea60018787604051808383808284378201915050925050509081526020016040518091039020600001600188886040518083838082843782019150509250505090815260200160405180910390206004015460405180806020018381526020018281038252848181546001816001161561010002031660029004815260200191508054600181600116156101000203166002900480156111065780601f106110db57610100808354040283529160200191611106565b820191906000526020600020905b8154815290600101906020018083116110e957829003601f168201915b5050935050505060405180910390a16001905095945050505050565b60006001826040518082805190602001908083835b60208310151561115c5780518252602082019150602081019050602083039250611137565b6001836020036101000a038019825116818451168082178552505050505050905001915050908152602001604051809103902060050160009054906101000a900473ffffffffffffffffffffffffffffffffffffffff169050919050565b60008060006001846040518082805190602001908083835b6020831015156111f757805182526020820191506020810190506020830392506111d2565b6001836020036101000a0380198251168184511680821785525050505050509050019150509081526020016040518091039020600801546001856040518082805190602001908083835b6020831015156112665780518252602082019150602081019050602083039250611241565b6001836020036101000a0380198251168184511680821785525050505050509050019150509081526020016040518091039020600901546001866040518082805190602001908083835b6020831015156112d557805182526020820191506020810190506020830392506112b0565b6001836020036101000a0380198251168184511680821785525050505050509050019150509081526020016040518091039020600a0160009054906101000a900473ffffffffffffffffffffffffffffffffffffffff169250925092509193909250565b606060008060006001856040518082805190602001908083835b6020831015156113785780518252602082019150602081019050602083039250611353565b6001836020036101000a03801982511681845116808217855250505050505090500191505090815260200160405180910390206001016001866040518082805190602001908083835b6020831015156113e657805182526020820191506020810190506020830392506113c1565b6001836020036101000a0380198251168184511680821785525050505050509050019150509081526020016040518091039020600201546001876040518082805190602001908083835b6020831015156114555780518252602082019150602081019050602083039250611430565b6001836020036101000a038019825116818451168082178552505050505050905001915050908152602001604051809103902060030160009054906101000a900473ffffffffffffffffffffffffffffffffffffffff166001886040518082805190602001908083835b6020831015156114e457805182526020820191506020810190506020830392506114bf565b6001836020036101000a038019825116818451168082178552505050505050905001915050908152602001604051809103902060040154838054600181600116156101000203166002900480601f0160208091040260200160405190810160405280929190818152602001828054600181600116156101000203166002900480156115b05780601f10611585576101008083540402835291602001916115b0565b820191906000526020600020905b81548152906001019060200180831161159357829003601f168201915b5050505050935093509350935093509193509193565b60006116cf836001846040518082805190602001908083835b60208310151561160457805182526020820191506020810190506020830392506115df565b6001836020036101000a038019825116818451168082178552505050505050905001915050908152602001604051809103902060030160009054906101000a900473ffffffffffffffffffffffffffffffffffffffff166001856040518082805190602001908083835b602083101515611693578051825260208201915060208101905060208303925061166e565b6001836020036101000a038019825116818451168082178552505050505050905001915050908152602001604051809103902060080154611873565b5060036001836040518082805190602001908083835b60208310151561170a57805182526020820191506020810190506020830392506116e5565b6001836020036101000a0380198251168184511680821785525050505050509050019150509081526020016040518091039020600401819055506001905092915050565b6000808490508073ffffffffffffffffffffffffffffffffffffffff166323b872dd8530866040518463ffffffff167c0100000000000000000000000000000000000000000000000000000000028152600401808473ffffffffffffffffffffffffffffffffffffffff1673ffffffffffffffffffffffffffffffffffffffff1681526020018373ffffffffffffffffffffffffffffffffffffffff1673ffffffffffffffffffffffffffffffffffffffff1681526020018281526020019350505050602060405180830381600087803b15801561182b57600080fd5b505af115801561183f573d6000803e3d6000fd5b505050506040513d602081101561185557600080fd5b81019080805190602001909291905050505060019150509392505050565b6000808490508073ffffffffffffffffffffffffffffffffffffffff1663a9059cbb85856040518363ffffffff167c0100000000000000000000000000000000000000000000000000000000028152600401808373ffffffffffffffffffffffffffffffffffffffff1673ffffffffffffffffffffffffffffffffffffffff16815260200182815260200192505050602060405180830381600087803b15801561191c57600080fd5b505af1158015611930573d6000803e3d6000fd5b505050506040513d602081101561194657600080fd5b81019080805190602001909291905050505060019150509392505050565b828054600181600116156101000203166002900490600052602060002090601f016020900481019282601f106119a557803560ff19168380011785556119d3565b828001600101855582156119d3579182015b828111156119d25782358255916020019190600101906119b7565b5b5090506119e09190611a64565b5090565b828054600181600116156101000203166002900490600052602060002090601f016020900481019282601f10611a2557805160ff1916838001178555611a53565b82800160010185558215611a53579182015b82811115611a52578251825591602001919060010190611a37565b5b509050611a609190611a64565b5090565b611a8691905b80821115611a82576000816000905550600101611a6a565b5090565b905600a165627a7a723058203c6daa94124e7ed6ac8ae93f87aaf5a28cdfad5f133482a82fc6773b6ec4180c0029",
  "source": "pragma solidity ^0.4.18;\r\n\r\nimport \"./ERC20Token.sol\";\r\nimport \"./SafeMath.sol\";\r\n\r\ncontract LNFMatch {\r\n  \r\n   address ContractOwner;\r\n   mapping(string => Item) Items; \r\n   \r\n\r\n   constructor() public  {\r\n        ContractOwner = msg.sender;\r\n    }\r\n\r\n  modifier onlyOwner() { require(msg.sender == ContractOwner); _; }\r\n\r\n   struct Item {\r\n        string AssetId; //IPFS Hash\r\n        string QnAId; //IPFS Hash\r\n        uint Type; //Found Or Lost\r\n        address Owner; // Founder/Person Lost It\r\n        uint Status; // 1: Wanted 2: Lost it 3: Claiming 4: Pending Shipping 5: Pending Payment 6: Complete\r\n        address Witness;\r\n        address Claimer;\r\n        string ClaimerAnswer;\r\n        uint Reward;\r\n        uint Incentive;\r\n        address ERCToken20Contract;\r\n    }\r\n\r\n    event ItemCreated(\r\n       string AssetId,\r\n       uint Type, \r\n       address Owner, \r\n       uint Status\r\n    );\r\n\r\n   event ItemModified(\r\n       string AssetId,\r\n       uint Status// 1: Wanted 2: Lost it 3: Claiming 4: Pending Shipping 5: Pending Payment 6: Complete\r\n    );\r\n    \r\n\r\n   function createItem(\r\n        string AssetId,\r\n        string QnAId,\r\n        uint Type\r\n        // string ClaimerAnswer,\r\n        // uint Reward,\r\n        // uint Incentive,\r\n        //address ERCToken20ContractAddress\r\n        ) \r\n        external returns (bool success) \r\n        {\r\n          Items[AssetId].AssetId = AssetId;\r\n          Items[AssetId].QnAId =QnAId;\r\n          Items[AssetId].Type =Type;\r\n          Items[AssetId].Owner =msg.sender;\r\n          Items[AssetId].Status = 1;\r\n        //   Items[AssetId].ClaimerAnswer = ClaimerAnswer;\r\n        //   Items[AssetId].Reward =Reward;\r\n        //   Items[AssetId].Incentive =Incentive;\r\n         // Items[AssetId].ERCToken20Contract =ERCToken20ContractAddress;\r\n\r\n          emit ItemCreated(\r\n                Items[AssetId].AssetId,\r\n                Items[AssetId].Type, \r\n                Items[AssetId].Owner, \r\n                Items[AssetId].Status);\r\n\r\n          return true;\r\n        }\r\n\r\n     function createItemReward(\r\n        string AssetId,\r\n        uint Reward,\r\n        uint Incentive,\r\n        address ERCToken20Contract\r\n        ) \r\n        external returns (bool success) \r\n        {\r\n          Items[AssetId].AssetId = AssetId;\r\n          Items[AssetId].Reward =Reward;\r\n          Items[AssetId].Incentive =Incentive;\r\n          Items[AssetId].ERCToken20Contract= ERCToken20Contract;\r\n          emit ItemModified(\r\n                Items[AssetId].AssetId,\r\n                Items[AssetId].Status);\r\n          return true;\r\n        }\r\n\r\n        \r\n\r\n        \r\n\r\n  function getItem(string AssetId) public constant returns  (\r\n        string QnAId,\r\n        uint Type,\r\n        address Owner, \r\n        uint Status) \r\n     {\r\n      return \r\n      (\r\n       Items[AssetId].QnAId,\r\n       Items[AssetId].Type,\r\n       Items[AssetId].Owner, \r\n       Items[AssetId].Status\r\n      );\r\n  }\r\n\r\n  function getItemClaimer(string AssetId) public constant returns  (\r\n        address Claimer) \r\n     {\r\n      return \r\n      (\r\n      \r\n       Items[AssetId].Claimer\r\n      );\r\n  }\r\n\r\n  function getItemClaimerAnswer(string AssetId) public constant returns  (\r\n        string ClaimerAnswer) \r\n     {\r\n      return \r\n      (\r\n      \r\n       Items[AssetId].ClaimerAnswer\r\n      );\r\n  }\r\n\r\n   function getItemWitness(string AssetId) public constant returns  (\r\n        address Claimer) \r\n     {\r\n      return \r\n      (\r\n       Items[AssetId].Witness\r\n      );\r\n  }\r\n\r\n function getRewardInfo(string AssetId) public constant returns  (\r\n        uint Reward,\r\n        uint Incentive,\r\n        address ERCToken20Contract) \r\n     {\r\n      return \r\n      (\r\n         Items[AssetId].Reward,\r\n         Items[AssetId].Incentive,\r\n         Items[AssetId].ERCToken20Contract\r\n      );\r\n  }\r\n\r\n\r\n  function Claim(address token, string AssetId, string ClaimerAnswer) public returns (bool success)\r\n  {\r\n        Items[AssetId].Claimer = msg.sender;\r\n        Items[AssetId].ClaimerAnswer= ClaimerAnswer;\r\n        Items[AssetId].Status = 2;\r\n        withdrawToken(token,msg.sender,Items[AssetId].Reward);\r\n       // transferToken(token, Items[AssetId].Witness, Items[AssetId].Incentive);\r\n       // transferToken(token, Items[AssetId].Witness, Items[AssetId].Reward);\r\n        return true;\r\n        // From Claimer To Incentived\r\n        // From Claimer To Reward Holder\r\n  }\r\n\r\n\r\n  function Shipped(string AssetId) public returns (bool success)\r\n  {\r\n        Items[AssetId].Status = 2;\r\n        return true;\r\n  }\r\n\r\n  //By Witness\r\n  function Redeem(address token, string AssetId) public returns (bool success)\r\n  {\r\n        transferToken(token, Items[AssetId].Owner, Items[AssetId].Reward);\r\n        Items[AssetId].Status = 3;\r\n        return true;\r\n  }\r\n\r\n    function transferToken(address token, address to, uint256 amount)private returns (bool success) \r\n    {\r\n         ERC20Token m = ERC20Token(token);\r\n         m.transfer(to,amount);\r\n         return true;\r\n    }\r\n\r\n     function withdrawToken(address token, address from, uint256 amount)private returns (bool success) \r\n    {\r\n         ERC20Token m = ERC20Token(token);\r\n         m.transferFrom(from,address(this),amount);\r\n         return true;\r\n    }\r\n\r\n    function refundToken(address token, address to, uint256 amount)private returns (bool success) \r\n    {\r\n         ERC20Token m = ERC20Token(token);\r\n         m.transferFrom(address(this),to,amount);\r\n         return true;\r\n    }\r\n\r\n}",
  "sourcePath": "C:\\hackathon2018\\block\\contracts\\LNFMatch.sol",
  "compiler": {
    "name": "solc",
    "version": "0.4.24+commit.e67f0147.Emscripten.clang"
  },
  "schemaVersion": "2.0.0",
  "updatedAt": "2018-08-18T18:51:46.980Z"
}